:1000000027C100000C94BF130C9494130C94691333
:100010000C943E130C9413130C94E8120C94BD1220
:100020000C94921246C1000044C1000042C100007D
:1000300040C100003EC100003CC100003AC10000C8
:1000400038C1000036C1000034C1000032C10000D8
:1000500030C100002EC100002CC100000C94C51C52
:1000600028C100000C94BE160C943C1422C1000060
:1000700020C100001EC100001CC100001AC1000008
:1000800018C1000016C1000014C1000012C1000018
:1000900010C100000EC100000CC100000C946F17CD
:1000A00008C1000006C1000004C1000002C1000038
:1000B00000C10000FEC00000FCC00000FAC000004B
:1000C000F8C00000F6C00000F4C000000C94131447
:1000D0000C94EA13EEC00000ECC00000EAC000007F
:1000E000E8C00000D319D619C519C919CF190D1ABE
:1000F000DA19DE19E419E819EC19F219F619FA19E6
:100100000D1A001A041A081AF41BF91BFE1B081C0E
:10011000121C8B1C1C1C241C2C1C361C401C4A1C36
:10012000591C631C8B1C6D1C771C811C000021005A
:10013000240027002A002D003000330001010000B8
:10014000040107010A0100002200250028002B00FD
:100150002E003100340002010000050108010B01EE
:10016000000020002300260029002C002F00320070
:100170000001000003010601090105050505070549
:1001800008080808020202020A0A08080404040413
:10019000010101010101010103030303030303033F
:1001A000040707070C0C0C0C0C0C0C0C02020202CE
:1001B00006060606060606060B0B0B0B0B0B0B0BB7
:1001C0000102102020080810204010204080020169
:1001D000020108040201010204081020408080404E
:1001E000201008040201800402018040201008044D
:1001F00002010804020101020408102040800102EB
:1002000004081020408000000A0B02090C0D0E08A3
:1002100007030401000000000000000000000000CF
:1002200000000000000000000000000000000000CE
:10023000000012111000000000000000000000008B
:10024000000000000000000000000000A424A3241F
:1002500011241FBECFEFD1E2DEBFCDBF00E00CBF47
:1002600016E0A0E0B2E0E6E8FDE500E00BBF02C06A
:1002700007900D92A63FB107D9F720E1A6EFB6E0AF
:1002800001C01D92A53DB207E1F711E0C7E2D1E040
:1002900000E006C021970109802FFE010E94782C02
:1002A000C632D10780E00807A9F70E940F1D0C9401
:1002B000B22EA6CECF92DF92EF92FF92FC01108277
:1002C000118212821382DB0120E030E04D9150E078
:1002D000022E02C0440F551F0A94E2F7052E000CAF
:1002E000660B770BC080D180E280F3804C295D29BA
:1002F0006E297F294083518362837383285F3F4F38
:100300002032310519F7FF90EF90DF90CF900895DC
:10031000CF92DF92EF92FF9220E030E06A017B0102
:10032000022E04C0F694E794D794C7940A94D2F7A7
:10033000FC01C192CF01285F3F4F2032310571F798
:10034000FF90EF90DF90CF900895FC01DB011496B1
:100350004D915D916D917C91179744835583668390
:1003600077831A968D919C911B97938782871C9611
:100370004D915D916D917C911F974487558766875C
:10038000778750964D915D916D917C915397408BFD
:10039000518B628B738B54968D919C915597958B55
:1003A000848B56964D915D916D917C915997468BBA
:1003B000578B608F718F5A964D915D916D917C91A5
:1003C0005D97428F538F648F758F5E964D915D91CF
:1003D0006D917C919197468F578F60A371A39296F0
:1003E0008D919C91939793A382A3CF01089587E762
:1003F00093E0089588E993E0089581EB93E00895F0
:1004000082ED93E00895FB01218130E0322F222715
:100410004081242BFC013383228382E090E0089505
:10042000FC0122818381FB012083818382E090E0B3
:10043000089581EE93E0089582E094E008958DE1BF
:1004400094E008958EE394E008958F929F92AF9286
:10045000BF92CF92DF92EF92FF920F931F93CF93B1
:10046000DF93EC018B018A81FB0180838B81818387
:100470008C8182838D818383C12CD12C812C912C02
:10048000540184E0E82EF12C4A815B816C817D81EE
:10049000D801AE0DBF1D84169506A606B706C0F49A
:1004A0008A899B898C0D9D1DFC0120813181F90178
:1004B00020813181BD01F9011995E80EF91EFFEF88
:1004C0008F1A9F0AAF0ABF0A8CE0C80ED11CDCCF7E
:1004D0008C898C938D8911968C9311978E891296A5
:1004E0008C9312978F8913968C93C7010496DF9192
:1004F000CF911F910F91FF90EF90DF90CF90BF9021
:10050000AF909F908F900895CF92DF92EF92FF92DD
:100510000F931F93CF93DF93EC018B01029695DF2E
:10052000F801E80FF91F2A8D20832B8D21832C8D54
:1005300022832D8D2383049640E050E0BA01CA8CBB
:10054000DB8CEC8CFD8C4C155D056E057F05A0F4F5
:100550009A01220F331FE8A1F9A1E20FF31F3081A6
:100560002181F801E80FF91F3083218302964F5F44
:100570005F4F6F4F7F4FE3CFDF91CF911F910F916F
:10058000FF90EF90DF90CF900895CF92DF92EF929F
:10059000FF920F931F93CF93DF93EC018B01029691
:1005A00054DFF801E80FF91F2A8D20832B8D21835A
:1005B0002C8D22832D8D2383049620E030E040E0B3
:1005C00050E0BA01CA8CDB8CEC8CFD8C4C155D05BF
:1005D0006E057F05B8F4EAA1FBA1E20FF31FE080EE
:1005E000F180B281A381F801E80FF91FE082F18266
:1005F000B283A38304964F5F5F4F6F4F7F4F2C5F93
:100600003F4FE0CFDF91CF911F910F91FF90EF907F
:10061000DF90CF90089588E594E0089589E794E00D
:1006200008958F929F92AF92BF92CF92DF92EF92F6
:10063000FF920F931F93CF93DF9300D01F92CDB7FC
:10064000DEB78C017B01CE01019634DE89819A816F
:10065000AB81BC814C015D0124E0820E911CA11C88
:10066000B11C6701E4E0CE0ED11CA6014E195F0952
:1006700060E070E0481559056A057B0548F4F6010D
:1006800041916F019F0122503109F9014083EDCF63
:100690006701C80ED91EF6011382F3E0EF0EF11CBC
:1006A000F801F382E282F601448150E060E070E0FC
:1006B000F8014483558366837783F6012581522BA5
:1006C000F8014483558366837783F6012681622B84
:1006D000F8014483558366837783F6012781722B63
:1006E000F8014483558366837783F601408550E0A3
:1006F00060E070E0F8014087518762877387F601F8
:100700002185522BF8014087518762877387F60154
:100710002285622BF8014087518762877387F60133
:100720002385722BF80140875187628773870C9667
:100730000F900F900F900F90DF91CF911F910F911D
:10074000FF90EF90DF90CF90BF90AF909F908F90F1
:10075000089586E994E0089587EB94E008958CED80
:1007600094E008958DEF94E00895DC01FB01818110
:10077000428150E060E070E0BA0155274427582BD1
:100780008081482B8381782B12964D935D936D93D6
:100790007C9315978581468150E060E070E0BA0156
:1007A00055274427582B8481482B8781782B169610
:1007B0004D935D936D937C9319978185428550E0AD
:1007C00060E070E0BA0155274427582B8085482BFC
:1007D0008385782B1A964D935D936D937C931D972B
:1007E0008585468550E060E070E0BA0155274427D2
:1007F000582B8485482B8785782B1E964D935D93C7
:100800006D937C9351978189428950E060E070E05C
:10081000BA0155274427582B8089482B8389782B88
:1008200052964D935D936D937C93559784E190E040
:100830000895DC01FB0112963C91129713962C91BE
:10084000139714969C91149715968C911597308355
:1008500021839283838316963C91169717962C9149
:10086000179718969C91189719968C91199734831D
:100870002583968387831A963C911A971B962C9111
:100880001B971C969C911C971D968C911D973087E9
:100890002187928783871E963C911E971F962C91E5
:1008A0001F9750969C91509751968C9151973487F1
:1008B00025879687878752963C91529753962C911D
:1008C000539754969C91549755968C91308B218BCD
:1008D000928B838B84E190E008958BE195E00895FD
:1008E0008CE395E008958F929F92AF92BF92CF9242
:1008F000DF92EF92FF920F931F93CF93DF9300D07D
:100900001F92CDB7DEB77C018B01FB01808190E0A7
:10091000A0E0B0E0F70182839383A483B583FB0159
:100920002181922BF70182839383A483B583FB01FA
:100930002281A22BF70182839383A483B583FB01D9
:100940002381B22BF70182839383A483B583FB01B8
:10095000848190E0A0E0B0E0F70186839783A087D0
:10096000B187FB012581922BF70186839783A087AE
:10097000B187FB012681A22BF70186839783A0878D
:10098000B187FB012781B22BF70186839783A0876C
:10099000B187FB01808590E0A0E0B0E0F70182879D
:1009A0009387A487B587FB012185922BF701828766
:1009B0009387A487B587FB012285A22BF701828745
:1009C0009387A487B587FB012385B22BF701828724
:1009D0009387A487B587645F7F4FCE0101966ADC59
:1009E00089819A81AB81BC814C015D01F0E18F0E60
:1009F000911CA11CB11C680120E1C20ED11CA601F2
:100A0000401B510B60E070E0481559056A057B05F5
:100A100048F4F60141916F019F0122503109F9011B
:100A20004083EDCFF801E80FF91F1786015F1F4FD4
:100A3000F7011787068740960F900F900F900F9041
:100A4000DF91CF911F910F91FF90EF90DF90CF90AA
:100A5000BF90AF909F908F900895EF92FF920F9369
:100A60001F93CF93DF937C01EB0102963CDF8C0157
:100A7000BE01680F791FC701429677DE800F911F74
:100A8000DF91CF911F910F91FF90EF9008958CE42B
:100A900095E008958CE192E008958DE695E0089543
:100AA0008EE895E008958F929F92AF92BF92CF9279
:100AB000DF92EF92FF920F931F93CF93DF9300D0BB
:100AC0001F92CDB7DEB77C018B01FB018191BF0185
:100AD000F7018283CE010196EDDB89819A81AB819A
:100AE000BC814C015D01F5E08F0E911CA11CB11C75
:100AF000680125E0C20ED11CA601401B510B60E02D
:100B000070E0481559056A057B0548F4F6014191E6
:100B10006F019F0122503109F9014083EDCFF801A7
:100B2000E80FF91F14820C5F1F4FF7011483038332
:100B300005960F900F900F900F90DF91CF911F911E
:100B40000F91FF90EF90DF90CF90BF90AF909F906C
:100B50008F90089581EA95E0089582EC95E00895DC
:100B60004F925F926F927F928F929F92AF92BF92BD
:100B7000CF92DF92EF92FF920F931F93CF93DF9369
:100B8000CDB7DEB72C970FB6F894DEBF0FBECDBF42
:100B90007C018B01DB018C9190E0F70193838283D0
:100BA00011962C91922B938382836E5F7F4FCE019F
:100BB000099680DB89849A84AB84BC84B501A40146
:100BC0004A5F5F4F6F4F7F4FF8013696CF01801B12
:100BD000910BA0E0B0E084179507A607B70728F4AB
:100BE0008191DF0112978C93F1CFF801E80DF91D87
:100BF0001582C8010596D70115969C938E9314977C
:100C0000B4016A5F7F4F600F711FCE01059652DB02
:100C1000BAE08B0E911C4D815E816F817885240135
:100C2000092C000C66087708440E551E661E771EB8
:100C3000F801E80DF91DCF01801B910BA0E0B0E099
:100C400084159505A605B70528F48191DF01129753
:100C50008C93F1CF6401C40ED51EB8016C0D7D1DBF
:100C6000FB0131971082C4010197800F911FF7019A
:100C700097838683CE0101961DDBA6014C5F5F4FF3
:100C800049805A806B807C804A01052E000CAA089E
:100C9000BB08840C951CA61CB71CF801E40FF51FBB
:100CA0009F01201B310BC901A0E0B0E08815990518
:100CB000AA05BB0528F48191DF0112978C93F0CF30
:100CC000CA01840D951DF801E80FF91FDF01119786
:100CD0001C929A0121503109020F131FD701199656
:100CE0001C930E9318972181428150E060E070E0E0
:100CF000BA0155274427522B2081422B2381722B86
:100D0000F701428753876487758704962C960FB640
:100D1000F894DEBF0FBECDBFDF91CF911F910F9131
:100D2000FF90EF90DF90CF90BF90AF909F908F900B
:100D30007F906F905F904F9008958BED95E00895B0
:100D40008CEF95E00895FC01DB014C9150E060E0F0
:100D500070E0428353836483758311968C9111975D
:100D6000582B428353836483758312968C91129718
:100D7000682B428353836483758313968C911397F6
:100D8000782B428353836483758314964C91149714
:100D900050E060E070E04683578360877187159666
:100DA0008C911597582B46835783608771871696C9
:100DB0008C911697682B46835783608771871796A7
:100DC0008C91782B468357836087718788E090E009
:100DD0000895DC01FB0112968C9112978083139683
:100DE0008C911397818314968C9114978283159616
:100DF0008C911597838316968C91169784831796FA
:100E00008C911797858318968C91189786831996DD
:100E10008C91878388E090E00895CF93DF93EC0175
:100E20008DE00E943A1B91E0692F681B8DE00E94C3
:100E3000621BBE0189E799E088DA83E090E0A0E0D8
:100E4000B0E08093930990939409A0939509B0938F
:100E500096098091040290910502039739F469E79D
:100E600079E085E599E0DF91CF916FCADF91CF916D
:100E70000895CF93DF93EC018DE00E943A1B91E03F
:100E8000692F681B8DE00E94621BBE0189EF99E00B
:100E90005CDA83E090E0A0E0B0E08093130A9093E6
:100EA000140AA093150AB093160A80910402909137
:100EB0000502039739F469EF79E085ED99E0DF9158
:100EC000CF9143CADF91CF9108952F923F924F92D5
:100ED0005F926F927F928F929F92AF92BF92CF92CA
:100EE000DF92EF92FF920F931F93CF93DF9300D087
:100EF0001F92CDB7DEB72091CD0F3091CE0F2230AB
:100F0000310509F0B4C09A8389838DE00E943A1BB1
:100F100061E0681B8DE00E94621BA981BA81149672
:100F20004D905D906D907C9017974092B70A5092CB
:100F3000B80A6092B90A7092BA0A88E0FD01389640
:100F4000ABEBBAE001900D928A95E1F7E981FA8165
:100F5000208831883092C40A2092C30A84889588F8
:100F6000A688B7888092C70A9092C80AA092C90A38
:100F7000B092CA0AC08CD18CE28CF38CC092CB0A9E
:100F8000D092CC0AE092CD0AF092CE0A048D158D53
:100F9000268D378D0093CF0A1093D00A2093D10A63
:100FA0003093D20A40A151A162A173A14093D30A08
:100FB0005093D40A6093D50A7093D60A84A195A160
:100FC000A6A1B7A189839A83AB83BC838093D70AF8
:100FD0009093D80AA093D90AB093DA0AE091040258
:100FE000F0910502339709F048C040928F0A509261
:100FF000900A6092910A7092920A88E0EBEBFAE014
:10100000A3E9BAE001900D928A95E1F730929C0A2B
:1010100020929B0A80929F0A9092A00AA092A10A15
:10102000B092A20AC092A30AD092A40AE092A50AA2
:10103000F092A60A0093A70A1093A80A2093A90A7F
:101040003093AA0A4093AB0A5093AC0A6093AD0A5E
:101050007093AE0A89819A81AB81BC818093AF0A7B
:101060009093B00AA093B10AB093B20A06C081E08F
:1010700090E09093F9068093F8060F900F900F90F0
:101080000F90DF91CF911F910F91FF90EF90DF9024
:10109000CF90BF90AF909F908F907F906F905F9018
:1010A0004F903F902F900895CF93DF93EC018DE008
:1010B0000E943A1B61E0681B8DE00E94621B8A81DE
:1010C0009B819093050280930402DF91CF91089554
:1010D0004F925F926F927F929F92AF92BF92CF9208
:1010E000DF92EF92FF920F931F93CF93DF938C01C8
:1010F000EB0188819981CA80D12CE12CF12C7601F9
:10110000DD24CC24D92AC82A8B81F82AF8018281CF
:101110009381A481B5818C159D05AE05BF0568F44A
:101120008CE08C9DB0018D9D700D11248289938976
:101130000E94C12DF801938B828BF801C282D38269
:10114000E482F582C12CD12C412C512C320184E057
:10115000E82EF12C5801F6E0AF0EB11C9CE0992E60
:10116000F8014281538164817581DE01AE0DBF1D9E
:101170004416550666067706C8F4BD01C50151DA66
:10118000E80EF91EF801A289B389AC0DBD1DF50169
:10119000892D01900D928A95E1F7FFEF4F1A5F0AB2
:1011A0006F0A7F0A8CE0C80ED11CDACF4C9150E058
:1011B00060E070E0448B558B668B778B11968C9139
:1011C0001197582B448B558B668B778B12968C918D
:1011D0001297682B448B558B668B778B13968C916B
:1011E000782B448B558B668B778BC7010496DF91E8
:1011F000CF911F910F91FF90EF90DF90CF90BF9014
:10120000AF909F907F906F905F904F900895AF92B6
:10121000BF92CF92DF92EF92FF920F931F93CF93E3
:10122000DF938C01EB01029653DFFE01E80FF91FFB
:1012300020813181C280D12CE12CF12C7601DD247A
:10124000CC24D32AC22A2381F22A5C0124E0A20EF4
:10125000B11CF801828D938DA48DB58D8C159D05E3
:10126000AE05BF0550F4B601660F771F80A191A1AE
:101270000E94C12DF80191A380A3F801C28ED38EE4
:10128000E48EF58E80E090E0DC017801FEE1EF0E67
:10129000F11CF801428D538D648D758D841795076F
:1012A000A607B70710F5AE014A0D5B1DFA012181B3
:1012B00030E0322F22274081242BF801378F268FF0
:1012C000F2E0AF0EB11C9C01220F331FF80140A1C8
:1012D00051A1240F351FF70140815181F90151833C
:1012E00040830196A11DB11DD4CFC501DF91CF91DF
:1012F0001F910F91FF90EF90DF90CF90BF90AF9034
:1013000008958F929F92AF92BF92CF92DF92EF9209
:10131000FF920F931F93CF93DF938C01EB01029603
:10132000D7DEFE01E80FF91F20813181C280D12C68
:10133000E12CF12C7601DD24CC24D32AC22A23818E
:10134000F22A5C0124E0A20EB11CF801828D938D7B
:10135000A48DB58D8C159D05AE05BF0570F4B60145
:10136000660F771F660F771F82A193A10E94C12D80
:10137000D80193969C938E939297F801C28ED38E48
:10138000E48EF58E20E030E0C12CD12C76014801AE
:10139000FEE18F0E911CF801828D938DA48DB58D89
:1013A000C816D906EA06FB06A0F5AE014A0D5B1D7C
:1013B000DA0111966C91119712968C9190E0A0E051
:1013C000B0E0DC0199278827962BFA016081862BF3
:1013D0004381B42BF801868F978FA0A3B1A3F4E0CB
:1013E000AF0EB11CF801A2A1B3A1A20FB31FF4016B
:1013F00040815181628173814D935D936D937C93A4
:101400001397FFEFCF1ADF0AEF0AFF0A2C5F3F4F57
:10141000C2CFC501DF91CF911F910F91FF90EF9047
:10142000DF90CF90BF90AF909F908F9008952F92B4
:101430003F924F925F926F927F928F929F92AF9264
:10144000BF92CF92DF92EF92FF920F931F93CF93B1
:10145000DF93CDB7DEB728970FB6F894DEBF0FBE87
:10146000CDBF8C015B01DB018C9111969C91119792
:101470001296CC901297D12CE12CF12C7601DD2420
:10148000CC24D92AC82A13968C91F82AF801828193
:101490009381A481B5818C159D05AE05BF0570F4BF
:1014A000B601660F771F660F771F828593850E94AE
:1014B000C12DD8011B969C938E931A97F801C28276
:1014C000D382E482F582D5011796C12CD12C760106
:1014D000F4E08F2E912C98012A5F3F4FF801428152
:1014E000538164817581C4010496C416D506E6064D
:1014F000F70680F54C9150E060E070E0742F6627AD
:1015000055274427FD013397E0814E2BFD0132978B
:10151000E0815E2BFD013197E0816E2BF80146835F
:101520005783608771874C01089742855385840FE4
:10153000951FF9014081518162817381FC014083D3
:10154000518362837383FFEFCF1ADF0AEF0AFF0A2A
:101550001496C4CFF401EA0DFB1D20813181C280B5
:10156000D12CE12CF12C7601DD24CC24D32AC22A03
:101570002381F22A4C01F80184859585A685B785DB
:101580008C159D05AE05BF0570F4B601660F771F7B
:10159000660F771F848995890E94C12DD8015596C1
:1015A0009C938E935497F801C486D586E686F78679
:1015B00020E030E0C12CD12C7601D8015096F80102
:1015C0004485558566857785F501E80DF91DC401CB
:1015D0000496C416D506E606F70648F591804281C2
:1015E00050E060E070E0BA01552744275929908007
:1015F0004929E3817E2BF801408B518B628B738BE1
:101600004C0184899589FC01E20FF31F4D915D9196
:101610006D917C9113974083518362837383FFEFB5
:10162000CF1ADF0AEF0AFF0A2C5F3F4FC8CF208195
:101630003181C280D12CE12CF12C7601DD24CC2427
:10164000D32AC22A2381F22A4C01F801868997897C
:10165000A08DB18D8C159D05AE05BF0560F4B6015A
:10166000660F771F848D958D0E94C12DD8015D96E0
:101670009C938E935C97F801C68AD78AE08EF18E90
:10168000412C512C32011801FAE12F0E311CF801C6
:1016900086899789A08DB18D481659066A067B0602
:1016A00008F05AC0B501680D791DCE0101960E945F
:1016B0005A0194012C5F3F4FC980DA80EB80FC8097
:1016C000C901032E000CAA0BBB0BAC01BD014C0DD4
:1016D0005D1D6E1D7F1D4D835E836F837887F501D1
:1016E000E20FF31FAF014A195B09CA01A0E0B0E0A5
:1016F0004D815E816F81788584179507A607B707AE
:1017000028F44191DF0112974C93ECCFC9018C0D65
:101710009D1DF501E80FF91F319710822150310905
:101720002A0D3B1DD8015B963C932E935A974C0192
:10173000C201880F991F5C96ED91FC915D97E80FAF
:10174000F91FD1018D919C9191838083BFEF4B1A3A
:101750005B0A6B0A7B0A9BCFC40128960FB6F894EC
:10176000DEBF0FBECDBFDF91CF911F910F91FF90D4
:10177000EF90DF90CF90BF90AF909F908F907F9031
:101780006F905F904F903F902F9008952F923F92CF
:101790004F925F926F927F928F929F92AF92BF9281
:1017A000CF92DF92EF92FF920F931F93CF93DF932D
:1017B000CDB7DEB7A8970FB6F894DEBF0FBECDBF8A
:1017C0008C010E94B91C2B013C01980125573B4F0D
:1017D0003C8B2B8BF90180819181A281B381A30184
:1017E0009201281B390B4A0B5B0BDA01C901893FB7
:1017F0009A42A105B10510F035971082780144E8AE
:10180000E41A4BEFF40AD7018D919C91892B79F062
:10181000F801E157FB4F80819181A281B38184154A
:101820009505A605B70518F4F701118210829801F5
:101830002C573B4F388B2F87A80140585B4F5A8B52
:10184000498BC80148969E8B8D8BD801AA57BB4FF8
:10185000BA8FA98FF801EC56FB4FF8A3EF8F215FE9
:101860003F4F3AA329A3180132E8231A3BEF330A6A
:101870004E5F5F4F588F4F8B89589B4F9CA38BA314
:10188000A30192012C5E3F4F4F4F5F4F2DA33EA30C
:101890004FA358A7F80184899589A689B789892B10
:1018A0008A2B8B2B81F4D80112968D919C911397E2
:1018B000DC01ED91FC910284F385E02D19959C01EA
:1018C00097FF14C088C20E94B91CDC01CB018419A7
:1018D0009509A609B709F80184889588A688B7886C
:1018E00088169906AA06BB06F0F69CC2AF85B88991
:1018F0008D919C911197820F931F8D939C93F7016B
:101900004081518147305105D1F4AF89B88D8D9117
:101910009C911197AC014F5F5F4F4D935C93F80121
:10192000E80FF91F208FF101808191810197918348
:101930008083892B09F0AECF88E090E032C041155A
:10194000510539F52F3F310589F481E090E0F70129
:10195000918380832DA13EA14FA158A5ABA1BCA12D
:101960002D933D934D935C93139794CF0E94B91C94
:10197000DC01CB0184199509A609B709893893417F
:10198000A105B10508F486CFF801EA57FB4F108294
:1019900049C241305105A9F42E3F310531F482E0AE
:1019A00090E0D7018D939C9375CFF701118210823F
:1019B000A98DBA8D8C9181116DCFC8010E948119BA
:1019C00069CF4230510589F4F10131832083AF8919
:1019D000B88D1D921C9283E090E0F7019183808383
:1019E000AF85B8892D933C9355CF4330510561F4B1
:1019F000322F2227F10180819181280F391F3183F5
:101A0000208384E090E0CDCF4430510581F460E044
:101A100071E00E94652C8F3F910531F485E090E0E4
:101A2000F7019183808336CF1182108233CF453006
:101A3000510571F4E989FA893183208386E090E0C9
:101A4000D7018D939C93EF85F8893183208322CF32
:101A500046305105A1F4322F2227A989BA898D91E8
:101A60009C911197280F391F2D933C9387E090E0AC
:101A7000F70191838083D1018D919C915ACF483099
:101A8000510509F007CFF7011182108260E071E083
:101A90000E94652C8F3F910509F0FCCEA989BA8977
:101AA0008D919C91009709F0C7C0C8010E948119CF
:101AB0008CE692E09A8389831C821B8282E496E002
:101AC0009E838D8398878F839A8789871B861C8640
:101AD0001D861E865801B8EEAB1ABBEFBB0A680123
:101AE000E6EBCE1AEBEFDE0AD501ED91FC913097D3
:101AF000D9F1848195819C838B83808191819E83A0
:101B00008D8382819381DC01ED91FC910480F581CC
:101B1000E02D199598878F83D501ED91FC918281F5
:101B20009381DC01ED91FC910680F781E02D199500
:101B30009A87898720E032E040E050E02B873C879D
:101B40004D875E87D8018D919C91F501A081B1816F
:101B500018966D917C911997DC01ED91FC91AE0185
:101B60004F5F5F4FC8011995B2E0AB0EB11CAC14CA
:101B7000BD0409F0B9CF812C92E0992EA12CB12C93
:101B8000F601A081B1811097E1F112968D919C919F
:101B900013979C838B8314968D919C9115979E83AC
:101BA0008D83ED91FC9111970480F581E02DCD019D
:101BB000199598878F83D6018D919C91DC01ED91C9
:101BC000FC910680F781E02D19959A8789878B868D
:101BD0009C86AD86BE86D801ED91FC912080318037
:101BE000F60180819181DC01ED91FC910280F3810D
:101BF000E02D1995AE014F5F5F4FBC01C801F101A7
:101C00001995F2E0CF0ED11CCE14DF0409F0B8CF45
:101C1000F801EA57FB4F81E0808331964082518280
:101C200062827382AB89BC894D925D926D927C9287
:101C300013978FEF9FEFFBC08A30910509F0A1C089
:101C400088E792E09A8389831B821C821D821E8210
:101C50001F82188619861A860E94B91CF801808492
:101C60009184A284B3849B01AC01281939094A09E3
:101C70005B0949015A016D897E89CE01019663D8BD
:101C8000C501B40128EE33E040E050E00E940A2A8A
:101C90008B809C80AD80BE80820E931EA41EB51EDC
:101CA0008B829C82AD82BE829B01AC0160E472E4B7
:101CB0008FE090E00E94562C8F809884A984BA848B
:101CC000DC01CB01880D991DAA1DBB1D8F83988750
:101CD000A987BA870E94B91C8F809884A984BA8486
:101CE00036E3931A35E6A30A34ECB30A28EE33E060
:101CF00040E050E00E940A2A2B8F3C8F4D8F5E8F70
:101D00009B01AC0160E472E48FE090E00E94562CED
:101D1000A5019401261B370B480B590BCA01B901C9
:101D20008B809C80AD80BE8031E0831A9108A10831
:101D3000B1082B8D3C8D4D8D5E8D821A930AA40ABD
:101D4000B50A20E03AEC4AE95BE30E940A2A820ED7
:101D5000931EA41EB51ED8011C968D929D92AD9225
:101D6000BC921F97F801608B718B828B938B0E94C2
:101D7000B91CAB89BC896D937D938D939C9313970C
:101D800089CD8630910551F46D897E898F8D98A11A
:101D90004EDB81E0E9A1FAA180837CCD8B309105F7
:101DA00021F4A98DBA8D1C9275CDFC01EF53FE4F25
:101DB000EE0FFF1FE00FF11F80819181009709F462
:101DC00069CDDC01ED91FC910190F081E02D6D89F0
:101DD0007E8919955FCDF801EA57FB4F80818823F2
:101DE00021F17801B9E7EB1ABBEFFB0AF70180811B
:101DF0009181A281B381A3019201281B390B4A0B67
:101E00005B0BDA01C901853C9940A105B10568F079
:101E1000C8010E948119D7014D925D926D927C920A
:101E2000139703C08EEF9FEF02C080E090E0A8966A
:101E30000FB6F894DEBF0FBECDBFDF91CF911F91DB
:101E40000F91FF90EF90DF90CF90BF90AF909F9059
:101E50008F907F906F905F904F903F902F9008955C
:101E6000EF92FF920F931F93CF93DF93EC018B01BF
:101E7000AA81BB81FD0101900020E9F731977F0124
:101E8000EA1AFB0AA70160E070E0C8010E9488011D
:101E90006A817B81A701C80104960E94A92EF801DE
:101EA000EE0DFF1D8C8184838D8185838E818683D9
:101EB0008F81878388858087898581878A858287C6
:101EC0008B858387C7010C96DF91CF911F910F916E
:101ED000FF90EF900895EF92FF920F931F93CF938F
:101EE000DF938C01EB01FC018281888383818983EC
:101EF00084818A8385818B8386818C8387818D838E
:101F000080858E8381858F83828588878385898775
:101F100084858A8785858B87A685B785FD01019095
:101F20000020E9F731977F01EA1AFB0AA70160E078
:101F300070E0CE010C960E948801F80166857785D5
:101F4000A701CE0140960E94A92EC7014096DF91BD
:101F5000CF911F910F91FF90EF900895EF92FF9214
:101F60000F931F93CF93DF937C01EB010296B3DFB6
:101F70008C01BE01680F791FC70142960E941904A7
:101F8000800F911FDF91CF911F910F91FF90EF90E4
:101F900008954F925F926F927F92AF92BF92CF92CD
:101FA000DF92EF92FF920F931F93CF93DF93EC0199
:101FB0007B018A81FB0180838B8181838C81828379
:101FC0008D818383DB01179640E050E0BA01E4E0A5
:101FD000F0E04A805B806C807D808F010C5F1F4F3A
:101FE0004415550566057705C0F48A859B85E80F7D
:101FF000F91F3497D080218192818381FD0133972D
:10200000D08231962083319690838C93F8014F5F74
:102010005F4F6F4F7F4F1496DCCFEE0DFF1D8C8509
:1020200080838D8581838E8582838F85838380E005
:1020300090E040E050E0BA014C845D846E847F847F
:10204000F701E00FF11F0C5F1F4F441555056605A2
:102050007705B8F4AC89BD89A80FB91FCC9011964B
:10206000DC90119712963C91129713962C91C08296
:10207000D182328323834F5F5F4F6F4F7F4F049630
:10208000DBCF8E8980838F898183888D8283898D40
:102090008383412C512C32018E899F89A88DB98D63
:1020A000481659066A067B0680F55201AA0CBB1C2D
:1020B000EC8DFD8DEA0DFB1DA081B181FD0101902C
:1020C0000020E9F731976F01CA1ADB0AA60160E028
:1020D00070E0C701800F911F0E9488010C5F1F4FA5
:1020E0008C8D9D8DFC01EA0DFB1D60817181A60127
:1020F000C701800F911F0E94A92E0C0D1D1DFFEF1F
:102100004F1A5F0A6F0A7F0AC7CFC801DF91CF91CC
:102110001F910F91FF90EF90DF90CF90BF90AF9005
:102120007F906F905F904F900895EF92FF920F9382
:102130001F93CF93DF938C017B01EC018A81FB011C
:102140008193AB81BC81ED0109900020E9F72197D3
:10215000CA1BDB0BAE0160E070E0CF010E9488017A
:10216000F80163817481AE01C70105960E94A92E12
:10217000CE010596DF91CF911F910F91FF90EF90C7
:102180000895CF92DF92EF92FF920F931F93CF9318
:10219000DF936C01EB01FC01828188838381898359
:1021A000A481B581FD0101900020E9F731978F01ED
:1021B0000A1B1B0BA80160E070E0CE0102960E9492
:1021C0008801F60164817581A801CE0106960E94FE
:1021D000A92EC8010696F601A681B781FD010190DE
:1021E0000020E9F731977F01EA1AFB0AA70160E0B6
:1021F00070E08C0F9D1F0E948801065F1F4FF60143
:1022000066817781A701CE01800F911F0E94A92EC0
:102210000E0D1F1DF601A085B185FD010190002066
:10222000E9F731977F01EA1AFB0AA70160E070E045
:10223000CE01800F911F0E9488010C5F1F4FF60195
:1022400060857185A701CE01800F911F0E94A92E84
:10225000C8018E0D9F1DF601628543853485258555
:10226000C80FD91F688349833A832B830496DF9173
:10227000CF911F910F91FF90EF90DF90CF90089535
:10228000FC0180E692E09183808385E093E0938374
:102290008283148215821682178289EF92E09187D9
:1022A000808782E496E09387828714861586168657
:1022B0001786108A118A128A138A158A148A168A36
:1022C000178A108E118E128E138E148E158E13A2F5
:1022D00012A20895FC0184E592E0918380838CE34F
:1022E00092E093838283148215821682178210866D
:1022F000118612861386148615861686178682E442
:1023000096E0918B808B88E492E0938B828B148A89
:10231000158A168A178A108E118E128E138E148EBD
:10232000158E168E178E10A211A212A213A214A23D
:1023300015A216A217A20895CF93DF93AB01EC016B
:10234000AE81BF81ED91FC9111976C817D810190EF
:10235000F081E02DCD01DF91CF9119940895CF92B6
:10236000DF92EF92FF920F931F93CF93DF936C0155
:102370007A018B01C0E0D0E0CE15DF0589F0D801ED
:102380006D918D01D601ED91FC910190F081E02DD0
:10239000C6011995892B11F47E0102C02196ECCF5C
:1023A000C701DF91CF911F910F91FF90EF90DF90C8
:1023B000CF90089586E298E0B9D221E0892B09F404
:1023C00020E0822F089589E897E0B0D221E0892BA0
:1023D00009F420E0822F08950E94A52E4F925F926B
:1023E0006F927F92EF92FF920F931F93CF93DF93A1
:1023F000CDB7DEB7A1970FB6F894DEBF0FBECDBF45
:102400007C01FA01CB0119A2223008F42AE08E01E6
:102410000F5D1F4F422E512C612C712CBF01A30167
:1024200092010E940A2AF901CA01015011096A3079
:1024300014F4605D01C0695CD8016C93232B242BDC
:10244000252B61F70115110591F0F801019000208D
:10245000E9F73197AF01401B510BD701ED91FC918A
:102460000280F381E02DB801C701199502C080E018
:1024700090E0A1960FB6F894DEBF0FBECDBFDF91FE
:10248000CF911F910F91FF90EF907F906F905F9091
:102490004F9008958F929F92AF92BF92CF92DF920A
:1024A000EF92FF920F931F93CF93DF937C01EB0189
:1024B0006C0182E0C80ED11C4701E5E08E0E911C34
:1024C00000E010E0F60141916F0150E060E070E043
:1024D0002AE0CE0183DF5C01E881F9810190F0817F
:1024E000E02D6EE2CE0119958A0D9B1D080F191F74
:1024F000C814D90439F7F701458150E060E070E075
:102500002AE0CE016BDF800F911FDF91CF911F91E9
:102510000F91FF90EF90DF90CF90BF90AF909F9082
:102520008F9008951F920F920FB60F9211240BB641
:102530000F922F933F934F935F936F937F938F935C
:102540009F93AF93BF93EF93FF93E0911402F091A9
:1025500015021995FF91EF91BF91AF919F918F91C6
:102560007F916F915F914F913F912F910F900BBE93
:102570000F900FBE0F901F9018951F920F920FB6DD
:102580000F9211240BB60F922F933F934F935F93AB
:102590006F937F938F939F93AF93BF93EF93FF932B
:1025A000E0911202F09113021995FF91EF91BF9102
:1025B000AF919F918F917F916F915F914F913F91DB
:1025C0002F910F900BBE0F900FBE0F901F9018957C
:1025D0001F920F920FB60F9211240BB60F922F93EA
:1025E0003F934F935F936F937F938F939F93AF939B
:1025F000BF93EF93FF93E0910802F09109021995C0
:10260000FF91EF91BF91AF919F918F917F916F91CA
:102610005F914F913F912F910F900BBE0F900FBE86
:102620000F901F9018951F920F920FB60F921124C2
:102630000BB60F922F933F934F935F936F937F93BC
:102640008F939F93AF93BF93EF93FF93E091060215
:10265000F09107021995FF91EF91BF91AF919F9172
:102660008F917F916F915F914F913F912F910F903B
:102670000BBE0F900FBE0F901F9018951F920F92D8
:102680000FB60F9211240BB60F922F933F934F93D7
:102690005F936F937F938F939F93AF93BF93EF93CA
:1026A000FF93E0911002F09111021995FF91EF91C3
:1026B000BF91AF919F918F917F916F915F914F915A
:1026C0003F912F910F900BBE0F900FBE0F901F9058
:1026D00018951F920F920FB60F9211240BB60F92FE
:1026E0002F933F934F935F936F937F938F939F931A
:1026F000AF93BF93EF93FF93E0910E02F0910F021F
:102700001995FF91EF91BF91AF919F918F917F911B
:102710006F915F914F913F912F910F900BBE0F9052
:102720000FBE0F901F9018951F920F920FB60F9229
:1027300011240BB60F922F933F934F935F936F9398
:102740007F938F939F93AF93BF93EF93FF93E0910A
:102750000C02F0910D021995FF91EF91BF91AF918D
:102760009F918F917F916F915F914F913F912F91A9
:102770000F900BBE0F900FBE0F901F9018951F92D9
:102780000F920FB60F9211240BB60F922F933F9317
:102790004F935F936F937F938F939F93AF93BF9369
:1027A000EF93FF93E0910A02F0910B021995FF91CC
:1027B000EF91BF91AF919F918F917F916F915F91B9
:1027C0004F913F912F910F900BBE0F900FBE0F9026
:1027D0001F9018951F920F920FB60F9211240BB6EF
:1027E0000F922F933F934F935F936F937F938F93AA
:1027F0009F93AF93BF93EF93FF9386E298E0E7D266
:10280000FF91EF91BF91AF919F918F917F916F91C8
:102810005F914F913F912F910F900BBE0F900FBE84
:102820000F901F9018951F920F920FB60F921124C0
:102830000BB60F922F933F934F935F936F937F93BA
:102840008F939F93AF93BF93EF93FF9386E298E0AC
:102850007CD2FF91EF91BF91AF919F918F917F912A
:102860006F915F914F913F912F910F900BBE0F9001
:102870000FBE0F901F9018951F920F920FB60F92D8
:1028800011240BB60F922F933F934F935F936F9347
:102890007F938F939F93AF93BF93EF93FF9389E8B9
:1028A00097E095D2FF91EF91BF91AF919F918F915A
:1028B0007F916F915F914F913F912F910F900BBE40
:1028C0000F900FBE0F901F901895FC01538D448DF3
:1028D000252F30E0842F90E0821B930B541710F0CB
:1028E000CF96089501970895FC01918D828D9817D8
:1028F00061F0828DDF01A80FB11D5D968C91928DE4
:102900009F5F9F73928F90E008958FEF9FEF0895E0
:10291000FC01918D828D981731F0828DE80FF11DA9
:10292000858D90E008958FEF9FEF0895FC01918DC4
:10293000228D892F90E0805C9F4F821B91098F73BD
:102940009927089580E090E0892B19F03CDD8111F2
:1029500020C080E090E0892B41F080E090E0892B5E
:1029600021F00E940000811117C080E090E0892BC7
:1029700019F020DD811113C080E090E0892BA1F0D7
:1029800080E090E0892B81F00E94000081110AC054
:1029900008950E940000DDCF0E940000E6CF0E9453
:1029A0000000EACF0C94000008950895E091F70626
:1029B0008091F606E81730F4F0E0EB5AF84F80818A
:1029C00090E008958FEF9FEF08959091F706809122
:1029D000F606981750F4E92FF0E0EB5AF84F2081F3
:1029E00030E09F5F9093F70602C02FEF3FEFC901E1
:1029F00008958091F60690E02091F706821B9109D8
:102A00000895089580E090E0089585ED8093BC00DE
:102A10008091BC0084FDFCCF1092A31008954091DA
:102A20003007262F30E0240F311D21323105DCF430
:102A30002091A3102430C9F4FC0180E090E08617B7
:102A400058F4309130072191DC01A25FB84FA30FF9
:102A5000B11D2C930196F3CF80913007680F6093DE
:102A6000300780E0089581E0089582E00895CF92D4
:102A7000DF92EF92FF920F931F93CF93DF937C012E
:102A8000262F972F8A018091A410882391F0C62FBA
:102A9000D72F6E01C40ED51ECC15DD0569F06991E6
:102AA000D701ED91FC910190F081E02DC7011995BE
:102AB000F3CF642F822FB3DFC801DF91CF911F9135
:102AC0000F91FF90EF90DF90CF900895CF93DF9319
:102AD0001F92CDB7DEB769832091A4102223D1F0D5
:102AE0002091C710203240F021E030E0FC01338318
:102AF000228380E090E014C08091A510E82FF0E0E0
:102B0000EA55FF4E998190838F5F8093A510809343
:102B1000C71004C061E0CE01019681DF81E090E042
:102B20000F90DF91CF910895FC01EA57FB4F808110
:102B3000089581EB93E0089582ED93E00895FC0100
:102B400084859585089586E994E0089587EB94E05F
:102B50000895FC0180A991A9089581EE93E008955C
:102B600082E094E00895FC0184A595A50895AF92B4
:102B7000BF92CF92DF92EF92FF920F931F93CF936A
:102B8000DF9300D01F921F92CDB7DEB78C016B018F
:102B9000643671053CF0FC01EA57FB4F80818823C5
:102BA00009F478C0DA01ED91FC910190F081E02DFB
:102BB000B801615E7D4FCA0119957801B8EEEB1A34
:102BC000BDEFFB0A2FEFF70120832EEF3196208314
:102BD00031968083319690833196292F280F209546
:102BE00020833196C082D801A25EBD4FDC9245E0C1
:102BF00050E020E030E0BC016A5F7F4F641775074A
:102C000034F0A1912A0F311D4F5F5F4FF7CF6C0158
:102C1000F8E0CF0ED11C800F911FFC01E15EFD4F4B
:102C20002095208321E0C21622E0D206CCF4570181
:102C3000C5018E199F098C159D0584F4D801129643
:102C40008D919C911397F50161915F01DC01ED91EC
:102C5000FC910190F081E02D1995EACFC6011CC0CE
:102C600084E892E09A83898383E08B838AE096E00C
:102C70009D838C83D801ED91FC910190F081E02D32
:102C8000AE014F5F5F4F67E070E0C80119958FEFAD
:102C90009FEF02C080E090E00F900F900F900F9098
:102CA0000F90DF91CF911F910F91FF90EF90DF90E8
:102CB000CF90BF90AF9008950F931F93CF93DF9362
:102CC0008C01EC012696CE010E940302D8011A96CF
:102CD000ED91FC911B97CE01DF91CF911F910F9148
:102CE000199460E08CE0EED460E08AE0EBD460E020
:102CF00070E089E052C50F931F93CF93DF938C014F
:102D0000EC012696CE010E942D05D8019E96ED91EC
:102D1000FC919F97CE01DF91CF911F910F91199454
:102D20000F931F93CF93DF938C01EC012696CE0176
:102D30000E948109D8019A96ED91FC919B97CE0152
:102D4000DF91CF911F910F911994FC01A089B18956
:102D50008C91A689B78982FD0FC09C91818D8F5F70
:102D60008F73228D821749F0218DDF01A20FB11DD3
:102D70005D969C93818F08958C9108951F920F9278
:102D80000FB60F9211240BB60F922F933F934F93D0
:102D90005F936F937F938F939F93AF93BF93EF93C3
:102DA000FF9389E897E0D1DFFF91EF91BF91AF9159
:102DB0009F918F917F916F915F914F913F912F9153
:102DC0000F900BBE0F900FBE0F901F901895FC0137
:102DD000848DDF01A80FB11DA35ABF4F2C91848DA4
:102DE00090E001968F739927848FA689B7892C93D9
:102DF000A089B1898C9180648C93938D848D981374
:102E000006C00288F389E02D80818F7D808308953C
:102E1000EF92FF920F931F93CF93DF93EC0181E02A
:102E2000888F9B8D8C8D981305C0E889F9898081E6
:102E300085FD23C0F62E0B8D10E00F5F1F4F0F7323
:102E40001127E02E8C8DE8120BC00FB607FCFACFCD
:102E5000E889F989808185FFF5CFCE01B8DFF2CF0F
:102E60008B8DFE01E80FF11DE35AFF4FF0820B8FAF
:102E7000EA89FB898081806207C0EE89FF896083CF
:102E8000E889F98980818064808381E090E0DF9126
:102E9000CF911F910F91FF90EF900895CF93DF9303
:102EA000EC01888D8823C1F0EA89FB89808185FD4A
:102EB00005C0A889B9898C9186FD0EC00FB607FCA4
:102EC000F5CF808185FFF2CFA889B9898C9185FFE4
:102ED000EDCFCE017CDFE8CFDF91CF9108951F9237
:102EE0000F920FB60F9211240BB60F922F933F93B0
:102EF0004F935F936F937F938F939F93AF93BF9302
:102F0000EF93FF938091B900887F803609F49CC0CD
:102F100068F5883209F45BC090F4803109F454C03C
:102F200038F4882309F4F6C0883009F44DC0F5C0A0
:102F3000883109F44CC0803209F45DC0EEC08034A1
:102F400009F468C048F4803309F455C0883309F0A7
:102F5000E4C08093A110D8C0803509F44FC08835F3
:102F600009F45DC0883409F0D8C0D6C0883909F4A6
:102F7000C7C0A8F4883709F467C038F4883609F464
:102F800063C0803709F460C0C8C0883809F4B8C08D
:102F9000803909F45FC0803809F0BFC05BC0803B56
:102FA00009F486C038F4803A09F466C0883A09F416
:102FB0007FC0B3C0803C09F4A7C0883C09F4A4C01A
:102FC000883B09F48AC0A9C080917E1010C09091FE
:102FD000A01080919F10981770F5E091A01081E0EB
:102FE0008E0F8093A010F0E0E158FF4E8081809317
:102FF000BB0085EC86C08093A1108EC0E091A0102C
:1030000081E08E0F8093A0108091BB00F0E0E1582A
:10301000FF4E80839091A01080919F106EC0E09130
:10302000A01081E08E0F8093A0108091BB00F0E093
:10303000E158FF4E80838091A21081116DC081E024
:1030400080937D1084EA61C083E08093A310109286
:103050005407CFCF80915407803208F051C0E091DF
:10306000540781E08E0F809354078091BB00F0E0FD
:10307000EC5CF84F8083BDCF85EC8093BC00109250
:10308000A31080915407803230F4E0915407F0E0AF
:10309000EC5CF84F10826091540770E0E0913207C9
:1030A000F091330784E397E019951092540735C0E7
:1030B00084E08093A3101092310710923007E091C2
:1030C0002E07F0912F07199580913007811105C0C7
:1030D00081E08093300710920E07E091310781E084
:1030E0008E0F80933107F0E0E25FF84F808180938C
:1030F000BB009091310780913007981708F479CF81
:1031000085E88093BC0009C085EC8093BC001092D8
:10311000A31003C01092A11078DCFF91EF91BF9132
:10312000AF919F918F917F916F915F914F913F915F
:103130002F910F900BBE0F900FBE0F901F90189500
:103140000F931F93CF93DF93EC018B01CB0101977A
:103150008F3F910520F48BE18DD20197C9F0C80112
:1031600081509F4F8F3F910528F48AE183D20197C8
:1031700019F416C0012B19F081E080930D0760E06F
:103180008881A0D260E08A819DD260E070E012C0A8
:1031900061E0888197D260E08A8194D2B8010AC048
:1031A00060E088818FD261E08A818CD266277727A0
:1031B000601B710B8C81DF91CF911F910F91EDC23C
:1031C000AF92BF92CF92DF92EF92FF920F931F9335
:1031D000CF938C016A0181E08093A41083E38093F4
:1031E000C6101092A5101092C71085E797E06EDC0C
:1031F00081E09CD1C82F811179C0F8019081C091E4
:10320000A310C111FCCF913208F090E281E08093CD
:10321000A3108093A2102FEF2093A1101092A01062
:10322000290F20939F1080937E1080917E108666D8
:1032300080937E1080917D10813061F410927D101A
:1032400080917E108093BB008091BC0083FDF8CFFD
:1032500085EC01C085EE8093BC008091A310813085
:10326000E1F38091A010891710F49091A010AFE7BE
:10327000B0E125E537E0F9018E2F821B891718F49C
:103280008D918193F9CF1092F7069093F6069923CA
:10329000E1F05801F6E0AF0EB11CE12CF12C3091B9
:1032A000F6062091F706F80180819181321779F0B6
:1032B000E816F90664F48FEFE81AF80A85E797E054
:1032C00084DBF50181935F01EACFC6E00FC0E81609
:1032D000F90659F4F80186819781A085B185F60138
:1032E00080839183A283B38301C0C7E08C2FCF91E9
:1032F0001F910F91FF90EF90DF90CF90BF90AF9014
:1033000008950F931F93CF93DF93CDB7DEB72A971E
:103310000FB6F894DEBF0FBECDBF8C0188E792E0F8
:103320009A8389831B821C821D821E821F821886BB
:1033300019861A86D801ED91FC910190F081E02D5B
:10334000AE014F5F5F4F6AE070E0C801199511D37D
:10335000F80160877187828793872A960FB6F89461
:10336000DEBF0FBECDBFDF91CF911F910F910895AA
:1033700090E0FC013197E231F10508F04EC088275A
:10338000EE58FF4F8F4F0C94782C809180008F77F0
:1033900003C0809180008F7D80938000089580918C
:1033A0008000877FF9CF84B58F7702C084B58F7D89
:1033B00084BD08958091B0008F7703C08091B000E4
:1033C0008F7D8093B0000895809190008F7707C023
:1033D000809190008F7D03C080919000877F8093C3
:1033E000900008958091A0008F7707C08091A00081
:1033F0008F7D03C08091A000877F8093A0000895F7
:10340000809120018F7707C0809120018F7D03C0BC
:1034100080912001877F809320010895CF92DF92D1
:10342000EF92FF920F931F93CF93DF93EC016A010A
:103430007B01E889F98982E080834115514E61055D
:103440007105B1F060E079E08DE390E0A7019601AD
:103450000E940A2A89019A010150110921093109A2
:103460003695279517950795980101151041A8F0F5
:10347000E889F989108260E874E88EE190E0A7019C
:1034800096010E940A2ADA01C9010197A109B1092E
:10349000B695A795979587959C01EC85FD8530831A
:1034A000EE85FF852083188EEC89FD8986E0808378
:1034B000EA89FB89808180618083EA89FB89808138
:1034C00088608083EA89FB89808180688083EA89BB
:1034D000FB8980818F7D8083DF91CF911F910F9138
:1034E000FF90EF90DF90CF900895E1E0FFE020E0C3
:1034F00030E041915191452B91F4F901EE0FFF1FFE
:10350000EF5FF04F9183808323583F4FFC01358359
:10351000248329EE3AE03783268381E008952F5FE4
:103520003F4F2931310529F780E00895382F209148
:10353000C7109091C610213208F049C08091A310A5
:103540008111FCCF42E04093A3103093A2103FEFD3
:103550003093A1101092A01020939F10A6EAB0E122
:103560004FE750E1FA013E2F341B321718F43D911A
:103570003193F9CF10927E1020917E10990F922BEB
:1035800090937E1090917D10913061F410927D1097
:1035900090917E109093BB009091BC0093FDF8CF6A
:1035A00095EC01C095EE9093BC009091A3109230E1
:1035B000E1F39091A1109F3F79F08091A1108032AA
:1035C00041F08091A110803331F084E005C081E0AA
:1035D00003C082E001C083E01092A5101092C710D2
:1035E0001092A4100895FF920F931F93CF93DF932F
:1035F000EB0108EB10E0F801F0802CE02083FC01E7
:10360000808191E09093A4108093C6101092A51031
:103610001092C71060E485E797E058DABE0184E0B5
:10362000769567958A95E1F785E797E04FDABE01D1
:1036300094E0660F771F9A95E1F785E797E046DA01
:1036400081E074DFF801F082DF91CF911F910F913B
:10365000FF90089581E08093A41083E38093C610C7
:103660001092A5101092C7106BE085E797E02EDA54
:1036700081E05CCFCF93DF93282F30E0F901EA5F40
:10368000FD4F8491F901E054FE4FD491F901E658C1
:10369000FE4FC491CC2389F081116ADEEC2FF0E05B
:1036A000EE0FFF1FE05AFE4FA591B491EC91ED2370
:1036B00081E090E021F480E002C080E090E0DF91C2
:1036C000CF9108951F93CF93DF93282F30E0F90116
:1036D000EA5FFD4F8491F901E054FE4FD491F90166
:1036E000E658FE4FC491CC23C1F0162F811140DE65
:1036F000EC2FF0E0EE0FFF1FEA5BFE4FA591B491B7
:103700008FB7F894111105C09C91ED2FE095E92336
:1037100002C0EC91ED2BEC938FBFDF91CF911F9105
:103720000895CF93DF9390E0FC01E054FE4F249185
:10373000FC01E658FE4F8491882361F190E0880FE8
:10374000991FFC01E45DFE4FC591D491FC01EA5B39
:10375000FE4FA591B491611109C09FB7F89488817B
:10376000209582238883EC912E230BC0623061F474
:103770009FB7F8943881822F809583238883EC91BA
:103780002E2B2C939FBF06C08FB7F894E8812E2B69
:1037900028838FBFDF91CF9108951F93CF93DF933D
:1037A000182FEB0161E0BDDF209711F460E004C049
:1037B000CF3FD10531F461E0812FDF91CF911F918F
:1037C00081CFE12FF0E0EA5FFD4FE4914E2F50E012
:1037D000FA013197E231F10508F09DC08827EC57D6
:1037E000FF4F8F4F0C94782C84B5806884BDC7BD83
:1037F00097C084B5806284BDC8BD92C080918000AE
:10380000806880938000D0938900C093880088C02E
:1038100080918000806280938000D0938B00C09361
:103820008A007EC080918000886080938000D09361
:103830008D00C0938C0074C08091B000806880932C
:10384000B000C093B3006CC08091B00080628093E0
:10385000B000C093B40064C08091900080688093F1
:103860009000D0939900C09398005AC08091900026
:10387000806280939000D0939B00C0939A0050C0C8
:1038800080919000886080939000D0939D00C093B9
:103890009C0046C08091A00080688093A000809129
:1038A000A0008F7B8093A000D093A900C093A800B4
:1038B00037C08091A00080628093A000D093AB00BD
:1038C000C093AA002DC08091A00088608093A000C2
:1038D000D093AD00C093AC0023C0809120018068DC
:1038E00080932001D0932901C093280119C08091B1
:1038F0002001806280932001D0932B01C0932A0184
:103900000FC080912001886080932001D0932D0109
:10391000C0932C0105C0C038D1050CF04CCF46CF68
:10392000DF91CF911F9108953FB7F8948091CD100A
:103930009091CE10A091CF10B091D01026B5A89B39
:1039400005C02F3F19F00196A11DB11D3FBFBA2F31
:10395000A92F982F8827820F911DA11DB11DBC0191
:10396000CD0142E0660F771F881F991F4A95D1F756
:1039700008952FB7F8946091C9107091CA10809182
:10398000CB109091CC102FBF08951F920F920FB6BD
:103990000F9211242F933F938F939F93AF93BF93D5
:1039A0008091C9109091CA10A091CB10B091CC1009
:1039B0003091C81023E0230F2D3720F40196A11D6C
:1039C000B11D05C026E8230F0296A11DB11D20934D
:1039D000C8108093C9109093CA10A093CB10B093D5
:1039E000CC108091CD109091CE10A091CF10B091BD
:1039F000D0100196A11DB11D8093CD109093CE10D3
:103A0000A093CF10B093D010BF91AF919F918F91A1
:103A10003F912F910F900FBE0F901F901895CF934D
:103A2000DF9300D000D0CDB7DEB7789484B5826044
:103A300084BD84B5816084BD85B5826085BD85B552
:103A4000816085BD80916E00816080936E001092D0
:103A5000810080918100826080938100809181004B
:103A600081608093810080918000816080938000DC
:103A70008091B10084608093B1008091B00081603A
:103A80008093B0008091910082608093910080913A
:103A9000910081608093910080919000816080937B
:103AA00090008091A10082608093A1008091A1008C
:103AB00081608093A1008091A00081608093A0002C
:103AC0008091210182608093210180912101816098
:103AD0008093210180912001816080932001809159
:103AE0007A00846080937A0080917A00826080936B
:103AF0007A0080917A00816080937A0080917A00C8
:103B0000806880937A001092C1000FB6F894A8954F
:103B100080916000886180936000109260000FBE09
:103B200040E051EE60E070E089E897E077DC1092C9
:103B3000F7061092F6061092A5101092C710109278
:103B4000A31081E08093A21010927D1061E084E1C7
:103B5000B9DD61E085E1B6DD8091B9008E7F8093AB
:103B6000B9008091B9008D7F8093B90088E480937B
:103B7000B80095E49093BC008093B8008091B100A8
:103B8000887F81608093B10084E090E0A0E0B0E0A5
:103B90008093E7089093E808A093E908B093EA08B7
:103BA00088E090E00E94942C9093EE088093ED08BA
:103BB00082E090E0A0E0B0E08093130990931409B4
:103BC000A0931509B093160988E090E00E94942C08
:103BD00090931C0980931B0953E0C52ED12CE12C36
:103BE000F12CC092130AD092140AE092150AF092B6
:103BF000160A8CE090E00E94942C90931C0A80930B
:103C00001B0AC092EF09D092F009E092F109F092FC
:103C1000F2098CE090E00E94942C9093F809809334
:103C2000F709C0929309D0929409E0929509F09215
:103C300096098CE090E00E94942C90939C098093CC
:103C40009B09C0926F09D0927009E0927109F092BD
:103C500072098CE090E00E94942C909378098093F4
:103C600077094091ED0A5091EE0A6091EF0A709148
:103C7000F00A8091EB0A9091EC0AD0DB1092660F6B
:103C80001092650F1092680F1092670F10926C0FD0
:103C900010926B0F10926A0F1092690F03E31FE0EE
:103CA000F80180E090E021913191232B81F4FC0117
:103CB000EE0FFF1FED5CF04F2BED3AE031832083D8
:103CC0008C599F4F9093DE0A8093DD0A04C00196C1
:103CD0008931910541F7E3E3FFE080E090E0219135
:103CE0003191232B81F4FC01EE0FFF1FED5CF04FAF
:103CF00029E53AE0318320838C599F4F90935C0AE9
:103D000080935B0A04C001968931910541F78FE4E5
:103D10009AE0EBDBE3E3FFE080E090E0219131917A
:103D2000232B81F4FC01EE0FFF1FED5CF04F27EA1F
:103D300039E0318320838C599F4F9093AA09809357
:103D4000A90904C001968931910541F78DE999E0EF
:103D5000CCDB80E090E0D8012D913D918D01232BAB
:103D600081F4FC01EE0FFF1FED5CF04F27E239E01C
:103D7000318320838C599F4F90932A09809329097E
:103D800004C001968931910531F78DE199E0ADDBF1
:103D900083EC98E0AADB8FEE98E0A7DB8DE19AE058
:103DA000A4DB9DE088E10FB6F894A89580936000AD
:103DB0000FBE9093600022242394312C01E010E088
:103DC000A895D7DD6093FE067093FF0680930007E9
:103DD00090930107C090FA06D090FB06E090FC0695
:103DE000F090FD069B01AC012C193D094E095F09BD
:103DF00069017A0135E6C316D104E104F10450F0FB
:103E00006093FA067093FB068093FC069093FD0680
:103E100081E001C080E080930C07882309F4A4C0EE
:103E200089EE9AE00E94C60B8091C70A9091C80A59
:103E3000A091C90AB091CA0A8093AF0F9093B00FB6
:103E4000A093B10FB093B20F8091CB0A9091CC0A9E
:103E5000A091CD0AB091CE0A8093B30F9093B40F86
:103E6000A093B50FB093B60F8091CF0A9091D00A6E
:103E7000A091D10AB091D20A8093B70F9093B80F56
:103E8000A093B90FB093BA0F8091D30A9091D40A3E
:103E9000A091D50AB091D60A8093BB0F9093BC0F26
:103EA000A093BD0FB093BE0F8091D70A9091D80A0E
:103EB000A091D90AB091DA0A8093BF0F9093C00FF6
:103EC000A093C10FB093C20FE0911B0AF0911C0A9E
:103ED000C080D180E280F380448155816681778102
:103EE00080859185A285B385C092DD0FD092DE0FCB
:103EF000E092DF0FF092E00F4093E10F5093E20F5A
:103F00006093E30F7093E40F8093E50F9093E60FB7
:103F1000A093E70FB093E80FE0919B09F0919C0903
:103F2000C080D180E280F3804481558166817781B1
:103F300080859185A285B385C0921310D09214100C
:103F4000E0921510F092161040931710509318102D
:103F50006093191070931A1080931B1090931C108B
:103F6000A0931D10B0931E1004DDC0908507D09063
:103F70008607E0908707F0908807DC01CB018C1959
:103F80009D09AE09BF0985369105A105B10528F146
:103F9000C0904910D0904A1076014EE0E40EF11C1A
:103FA000A70160E0D6011C968D919C911D9708D9C0
:103FB000A6014E5E5F4F61E0F6018485958500D9CC
:103FC000F0920507E0920407D4DC609385077093B4
:103FD00086078093870790938807CBDCC090810782
:103FE000D0908207E0908307F0908407DC01CB013A
:103FF0008C199D09AE09BF0985369105A105B1054A
:1040000078F1C0904710D09048107601F7E0EF0E9D
:10401000F11CA70162E0D60115968D919C9116972F
:10402000CFD8A601455F5F4F63E0F6018581968199
:10403000C7D8A601415F5F4F64E0D60115968D9108
:104040009C911697BDD8F0920307E092020791DC8D
:10405000609381077093820780938307909384070E
:10406000A0900407B090050725E036E84CEA5BE332
:10407000F50160817181828193810E94F32B6B0134
:104080007C0160939B0F70939C0F80939D0F909386
:104090009E0F25E036E84CEA5BE3D50114966D915E
:1040A0007D918D919C9117970E94F32B69837A8360
:1040B0008B839C8360939F0F7093A00F8093A10FBD
:1040C0009093A20FE0910207F0910307FE83ED8326
:1040D00021E633EC43E55DE3608171818281938168
:1040E0000E94F32B2B013C016093A30F7093A40F4C
:1040F0008093A50F9093A60F21E633EC43E55DE393
:10410000AD81BE8114966D917D918D919C91179793
:104110000E94F32B4B015C016093A70F7093A80FD3
:104120008093A90F9093AA0F21E633EC43E55DE35A
:10413000ED81FE8160857185828593850E94F32BD8
:104140006093AB0F7093AC0F8093AD0F9093AE0F55
:104150004092430A5092440A6092450A7092460A7D
:104160008092470A9092480AA092490AB0924A0A5D
:1041700060934B0A70934C0A80934D0A90934E0AB9
:10418000C0923B0AD0923C0AE0923D0AF0923E0A6D
:1041900029813A814B815C8120933F0A3093400A08
:1041A0004093410A5093420A409045105090461067
:1041B000A201405C5F4F5A834983DA018D919C9143
:1041C000DC01ED91FC910084F185E02D1995499772
:1041D00054F4E0914510F091461086AD97AD0197EB
:1041E00009F092C19EC04201FDE58F0E911C720143
:1041F0002EE5E20EF11C62013BE5C30ED11C52011B
:1042000042E4A40EB11C32015AE5650E711CA9816D
:10421000BA818D919C91DC01ED91FC910084F18536
:10422000E02D199518161906A4F6E981FA81808106
:104230009181DC01ED91FC910284F385E02D1995CB
:10424000F4018083D7012D913C912115310521F096
:104250002130310561F1DBCF8F30E9F0A981BA81DE
:104260008D919C91DC01ED91FC910084F185E02D14
:104270001995181619060CF0ACCFE981FA818081E6
:104280009181DC01ED91FC910284F385E02D19957B
:10429000F4018083E3CFF60111821082D5018C9363
:1042A0002FEFF3012083D7012D923C92B0CFF6017E
:1042B000208131812F5F3F4F31832083F201E20F54
:1042C000F31FEE5BFF4F80832831310574F4A98121
:1042D000BA818D919C91DC01ED91FC910084F18576
:1042E000E02D1995892B09F42AC3F601808191816B
:1042F000489709F08CCFD7011D921C92F50180815F
:104300008F3009F084CFD3018C91811180CFD201FD
:1043100089E101900D928A95E1F7F20137AE26AE60
:1043200076CF828190E0582F44272181422B7A0159
:10433000B7E0FB22F28EE18E438150E09A0165E006
:10434000220F331F6A95E1F773E0959587957A956B
:10435000E1F7822B932B9770948F838F258130E028
:10436000848164E0869FC0011124A6E0559547959D
:10437000AA95E1F7482B592BB901762F6627770FBD
:10438000770F642B752B7770768F658F868190E021
:10439000AC015695542F4427579547953595279549
:1043A000242B352B377030A3278F278130E0A901CC
:1043B000A4E0440F551FAA95E1F7B4E095958795C1
:1043C000BA95E1F7842B952B977092A381A38185F1
:1043D00090E0408550E0440F551F220F232F221FED
:1043E000330B242B352BAC01542F4427550F242B92
:1043F000352B377034A323A3228530E0A901B6E022
:10440000440F551FBA95E1F7959587959595879532
:10441000842B952B977096A385A38385A8E08A9F0C
:10442000C0011124B5E035952795BA95E1F7282B01
:10443000392B30A727A315AE878982FF02C093E0EE
:1044400095AF83FF02C0B1E0B5AF17AE16AE85AD34
:1044500081114AC0072E000C880B990B0E943F2B3C
:1044600020E030E046EB53E40E943B2A2DEC3CEC8C
:104470004CE151E40E94F32B20E030E045EA54E4A3
:104480000E94A42A2DEC3CEC4CE950E4F4D7609354
:10449000C50F7093C60F8093C70F9093C80FB701D5
:1044A000FF0C880B990B0E943F2B20E030E046EB7D
:1044B00053E4E1D720E030E048E453E40E94F32BDA
:1044C00020E030E045EA54E40E94A42A20E030E0F5
:1044D00048EC52E4D0D76093C90F7093CA0F809311
:1044E000CB0F9093CC0F10C01092C50F1092C60F37
:1044F0001092C70F1092C80F1092C90F1092CA0FD6
:104500001092CB0F1092CC0F8091CD0F9091CE0FC7
:104510008330910519F0049739F089C08091C30F59
:10452000882309F484C06BC0A0904910B0904A1051
:10453000A501425F5F4F60E0F501848595850E948B
:10454000E0188091080790910907009719F00297E9
:1045500071F05AC08BE18ED8892B09F055C022E04A
:1045600030E0309307072093060774D84DC0D5017B
:104570001E96CD90DD90ED90FC90519720E030EBB1
:1045800049E955E4C701B601DBD787FD40C020E00B
:1045900030EF4AE955E4C701B6010E94EF2B181627
:1045A000CCF160E070E0C5010E94A01810920707EE
:1045B00010920607B9D94B015C0126E9C22ED12C15
:1045C000E12CF12CB1D9DC01CB0188199909AA0998
:1045D000BB09883E9340A105B10558F0B1E0CB1A64
:1045E000D108E108F108E8EE8E0EE3E09E1EA11C62
:1045F000B11CC114D104E104F10421F72BD81093AC
:10460000CE0F0093CD0F13C066E470E005C06DEDD2
:104610007FEF02C063E270E0809106079091070788
:104620009093090780930807C5010E94A018809104
:10463000CD0F9091CE0F81309105E1F0A4F4009759
:1046400009F04AC010923D1010923E1010923F1097
:10465000109240101092411010924210109243108C
:104660001092441017C18230910529F183309105D1
:1046700011F132C08091C50F9091C60FA091C70F64
:10468000B091C80F80933D1090933E10A0933F10BF
:10469000B09340108091C90F9091CA0FA091CB0F99
:1046A000B091CC0F8093411090934210A09343108F
:1046B000B093441015C010923D1010923E1010920D
:1046C0003F10109240101092411010924210109220
:1046D00043101092441004C08B7F892B09F4DAC078
:1046E000C0903D10D0903E10E0903F10F0904010F0
:1046F000A0904710B09048102DEC3CEC4CE950ECE9
:10470000C701B6011DD787FD4AC02DEC3CEC4CE932
:1047100050E4C701B6010E94EF2B181654F020E0B8
:1047200030E0A901C701B6010E94EF2B18164CF02A
:104730002DC09DECC92E9CECD92E9CE9E92E90E46D
:10474000F92E209100023091010240910202509115
:104750000302C701B601F4D68823B1F020E030E0AF
:1047600040EA50E4C701B601EFD620E030E040E86F
:1047700055E40E94F32B50D770930B0760930A0700
:10478000C50104960E94F31A60E048C020E030E0C2
:10479000A901C701B601D4D687FF3FC008C08DEC80
:1047A000C82E8CECD82E8CE9E82E80ECF82E2091C7
:1047B0000002309101024091020250910302C701B0
:1047C000B601BED6882311F120E030E0A901C7016F
:1047D000B6010E94EF2B20E030E040EA50E41816CA
:1047E0001CF4C701B60103C0C701B6019058ACD68E
:1047F00020E030E040E855E4F6D70ED770930B0781
:1048000060930A07C50104960E94F31A61E0D5017E
:104810008C910E94621B60E006C061E0D5018C9122
:104820000E94621B61E0F50182810E94621BC092BE
:104830000002D0920102E0920202F0920302609123
:104840004110709142108091431090914410E4D631
:104850008091491090914A100E94A018E0911B0984
:10486000F0911C0980913D1090913E10A0913F1055
:10487000B091401080839183A283B38380914110D3
:1048800090914210A0914310B0914410848395837D
:10489000A683B78380910C07882309F44DC08091CB
:1048A000040290910502039791F46BE87AE08FE49B
:1048B0009AE00E949C1165ED79E08DE999E00E94F3
:1048C0009C1165E579E08DE199E00E949C11809151
:1048D0000402909105021816190674F5E091ED088E
:1048E000F091EE088091CD0F9091CE0F918380834F
:1048F0008091CF0F9091D00F938382838091F8069F
:104900009091F90695838483809104029091050229
:10491000978386836DEC78E083EC98E00E949C118D
:1049200067E27AE08DE19AE00E949C1169EF78E0FD
:104930008FEE98E00E949C110E94A21441CAD701F8
:104940001D921C92D2CC0895EF92FF920F931F9369
:10495000CF93DF93CDB7DEB7ED970FB6F894DEBFF8
:104960000FBECDBF8FED92E090934C1080934B1013
:1049700010924D1010924E1010924F101092501035
:10498000109229081092280848EE53E060E070E089
:1049900040932A0850932B0860932C0870932D089D
:1049A0002DEC32E03093270820932608E5EDF0E067
:1049B000F0933308E0933208E4EDF0E0F09335082B
:1049C000E0933408E0EDF0E0F0933708E093360828
:1049D000E1EDF0E0F0933908E0933808E2EDF0E023
:1049E000F0933B08E0933A08E6EDF0E0F0933D08E1
:1049F000E0933C0810923F08109240081092410842
:104A00001092420810928C0710928B0740938D07EA
:104A100050938E0760938F077093900730938A07A7
:104A20002093890725EC30E0309396072093950773
:104A300024EC30E0309398072093970720EC30E087
:104A400030939A072093990721EC30E030939C072C
:104A500020939B0722EC30E030939E0720939D0724
:104A600026EC30E03093A00720939F071092A20716
:104A70001092A3071092A4071092A50790935210CA
:104A800080935110109253101092541010925510A0
:104A900010925610909358108093571010925910FE
:104AA00010925A1010925B1010925C1090935E104E
:104AB00080935D1010925F10109260101092611040
:104AC0001092621090936C1080936B1010926D1086
:104AD00010926E1010926F101092701090936410DC
:104AE00080936310109265101092661010926710F8
:104AF000109268109093721080937110109273103E
:104B00001092741010927510109276109093781085
:104B1000809377101092791010927A1010927B1077
:104B200010927C10109278071092770740937907C3
:104B300050937A0760937B0770937C0785EE92E031
:104B400090937607809375070E94B91CDC01CB0116
:104B5000C297A109B1098093850790938607A09316
:104B60008707B09388070E94B91C609381077093F0
:104B7000820780938307909384078DEC9CECACECC8
:104B8000BDE38093D10F9093D20FA093D30FB09336
:104B9000D40F1092D50F1092D60F1092D70F1092FB
:104BA000D80F1092D90F1092DA0F1092DB0F1092DB
:104BB000DC0F1092DD0F1092DE0F1092DF0F1092BB
:104BC000E00F1092E10F1092E20F1092E30F10929B
:104BD000E40F1092E50F1092E60F1092E70F10927B
:104BE000E80F1092E90F1092EA0F1092EB0F10925B
:104BF000EC0F1092ED0F1092EE0F1092EF0F10923B
:104C0000F00F1092F10F1092F20F1092F30F10921A
:104C1000F40F1092F90F1092FA0F1092FB0F1092EE
:104C2000FC0F1092FD0F1092FE0F1092FF0F1092CA
:104C300000101092011010920210109203101092A6
:104C400004101092F50F1092F60F1092F70F1092B9
:104C5000F80F109206101092051080930710909391
:104C60000810A0930910B0930A1010920B10109224
:104C70000C1010920D1010920E1010920F10109236
:104C80001010109211101092121010921310109216
:104C900014101092151010921610109217101092F6
:104CA00018101092191010921A1010921B101092D6
:104CB0001C1010921D1010921E1010921F101092B6
:104CC0002010109221101092221010922310109296
:104CD0002410109225101092261010922710109276
:104CE00028101092291010922A1010922F10109252
:104CF0003010109231101092321010923310109226
:104D00003410109235101092361010923710109205
:104D100038101092391010923A1010922B101092F5
:104D20002C1010922D1010922E1010923C101092F8
:104D30003B1081E090E09093CE0F8093CD0F1092C6
:104D40009B0F10929C0F10929D0F10929E0F10922D
:104D50009F0F1092A00F1092A10F1092A20F10920D
:104D6000A30F1092A40F1092A50F1092A60F1092ED
:104D7000A70F1092A80F1092A90F1092AA0F1092CD
:104D8000AB0F1092AC0F1092AD0F1092AE0F1092AD
:104D9000AF0F1092B00F1092B10F1092B20F10928D
:104DA000B30F1092B40F1092B50F1092B60F10926D
:104DB000B70F1092B80F1092B90F1092BA0F10924D
:104DC000BB0F1092BC0F1092BD0F1092BE0F10922D
:104DD000BF0F1092C00F1092C10F1092C20F10920D
:104DE000C30F1092C40F1092C50F1092C60F1092ED
:104DF000C70F1092C80F1092C90F1092CA0F1092CD
:104E0000CB0F1092CC0F1092D00F1092CF0F1092A8
:104E10003D1010923E1010923F10109240101092D0
:104E2000411010924210109243101092441080E6EC
:104E300090E07AD58C01FC01E05CFF4F86E298E0BF
:104E400091838083109346100093451089E1ECE82C
:104E5000F2E0DE01959601900D928A95E1F784E2E9
:104E6000E5EAF2E0DE01119601900D928A95E1F7F4
:104E700040EA56E861E070E086E298E00E940E1A8F
:104E800089E1FE01B596D80101900D928A95E1F76E
:104E9000D801599682E1FE01319601900D928A95D2
:104EA000E1F7F80115AE17AE16AEE55AFF4F1182C5
:104EB000108233961182108283E190E035D58C0107
:104EC00082E6F801848380E390E09183808381E32C
:104ED00090E0938382838BE090E026D534E0E32E4C
:104EE000F12CFC01F182E082F80196838583178220
:104EF00010861186128613861486158616861786E6
:104F0000108A118A128A61E080E30E94911B61E09D
:104F1000F80182810E94911B109348100093471062
:104F200086E190E001D58C018CE090E0F80191835E
:104F300080838AE090E09383828389E090E0958388
:104F400084838AE190E0978386838BE190E0918768
:104F5000808782E190E0938782878BE090E0E4D4C1
:104F6000FC01F182E082F801958784871686178616
:104F7000108A118A128A138A148A158A61E08CE0D9
:104F80000E94911B61E0F80182810E94911B61E007
:104F9000F80184810E94911B60E0F80186810E94E3
:104FA000911B60E0F80180850E94911BF801228529
:104FB00033852230310509F4E8C12330310509F485
:104FC000E6C1C9014297049760F487E1821BE0C102
:104FD000823009F0FCC18091690083608093690090
:104FE000E89A789410934A10009349101092D50FC4
:104FF0001092D60F1092D70F1092D80F1092D90F8F
:105000001092DA0F1092DB0F1092DC0F10920B103F
:1050100010920C1010920D1010920E1010920F1092
:1050200010921010109211101092121089E293E059
:105030009093EA0A8093E90A89E897E09093EC0A52
:105040008093EB0A80E091EEA0E0B0E08093ED0A5F
:105050009093EE0AA093EF0AB093F00A10926F0FAC
:105060008DE193E090937E0F80937D0F10927F0FE0
:105070001092800F1092810F1092820F1092880F61
:105080001092870F1092890F10928A0F10928B0F37
:1050900010928C0F1092920F1092910F1092930F0A
:1050A0001092940F1092950F1092960F10929A0FE3
:1050B0001092990FE1E0FFE0119211928FE0E3333B
:1050C000F807D1F7E3E3FFE0119211928FE0E536A4
:1050D000F807D1F7E1E0FBE011928DE0E130F8074D
:1050E000D9F7E1E0FDE011928FE0E130F807D9F760
:1050F0001092FD0A1092FE0A1092FF0A1092000B05
:1051000083E693E09093DC0A8093DB0A8BE493E0E0
:105110009093E20A8093E10A1092E40A1092E30A63
:1051200084E598E09093E60A8093E50A01E010E0B8
:105130001093E80A0093E70A83E496E09093E00A6C
:105140008093DF0A83EB9AE00E946A118BE89AE071
:105150000E946A118FE393E090935A0A8093590A50
:105160008FE59AE00E946A1185E697E09093880A9D
:105170008093870A10938A0A0093890A8EE596E045
:1051800090935E0A80935D0A89E596E09093500AB9
:1051900080934F0A8BE89AE09093520A8093510AC9
:1051A0001092580A1092570A87E29AE00E946A11F8
:1051B00086E796E090931E0A80931D0A87E29AE0A4
:1051C0009093200A80931F0A1092260A1092250AB3
:1051D00089EF99E00E94401185ED99E00E9440110D
:1051E00023E3E22E23E0F22EF092A809E092A70931
:1051F0008DEA99E00E94401189E397E09093D209EB
:105200008093D1091093D4090093D30984E996E0DF
:105210009093AC098093AB098FE896E090939E0938
:1052200080939D0985ED99E09093A00980939F0953
:105230001092A6091092A50989E799E00E944011F1
:1052400085E599E00E944011F0922809E092270933
:105250008DE299E00E9440118DE097E09093520911
:105260008093510910935409009353098FEA96E0F3
:1052700090932C0980932B098AEA96E090931E095B
:1052800080931D0985E599E09093200980931F097B
:10529000109226091092250989EF98E00E9440118A
:1052A0008AEC96E09093F0088093EF0889EF98E0FD
:1052B0009093F2088093F1081092F8081092F70882
:1052C00081E193E09093CE088093CD0885E093E050
:1052D0009093D0088093CF081092D1081092D208F2
:1052E0001092D3081092D40889EF92E09093D608D8
:1052F0008093D50882E496E09093D8088093D708ED
:105300001092D9081092DA081092DB081092DC088B
:105310001092DD081092DE081092DF081092E0086B
:105320001092E2081092E1081092E3081092E4084B
:105330001092E5081092E6081092E7081092E8082B
:105340001092E9081092EA081092EE081092ED0807
:1053500087EE96E09093C4088093C3088DEC98E0A4
:105360009093C6088093C5081092CC081092CB0881
:10537000ED960FB6F894DEBF0FBECDBFDF91CF9193
:105380001F910F91FF90EF90089580E001C081E0A0
:10539000E82FF0E0EE0FFF1FEA5FFD4F21E736E157
:1053A00031832083833039F4809169008C6080934D
:1053B0006900E99A16CE843088F4813009F008CE6D
:1053C00080916A008C6080936A00ED9A0ACE809189
:1053D0006A00836080936A00EC9A03CE843039F4CB
:1053E00080916900806380936900EA9AFACD8530E4
:1053F00071F780916900806C80936900EB9AF1CD20
:105400002BD0A59F900DB49F900DA49F800D911D52
:1054100011240895A1E21A2EAA1BBB1BFD010DC089
:10542000AA1FBB1FEE1FFF1FA217B307E407F50754
:1054300020F0A21BB30BE40BF50B661F771F881F30
:10544000991F1A9469F760957095809590959B01C6
:10545000AC01BD01CF010895A29FB001B39FC0016F
:10546000A39F700D811D1124911DB29F700D811D90
:105470001124911D08955058BB27AA270ED075C13D
:1054800066D130F06BD120F031F49F3F11F41EF45F
:105490005BC10EF4E095E7FB51C1E92F77D180F3B2
:1054A000BA17620773078407950718F071F49EF521
:1054B0008FC10EF4E0950B2EBA2FA02D0B01B90170
:1054C00090010C01CA01A0011124FF27591B99F07A
:1054D000593F50F4503E68F11A16F040A22F232F86
:1054E000342F4427585FF3CF469537952795A795D6
:1054F000F0405395C9F77EF41F16BA0B620B730B7D
:10550000840BBAF09150A1F0FF0FBB1F661F771FED
:10551000881FC2F70EC0BA0F621F731F841F48F4A2
:10552000879577956795B795F7959E3F08F0B3CF28
:105530009395880F08F09927EE0F97958795089512
:10554000D9D008F481E008950CD00FC107D140F004
:10555000FED030F021F45F3F19F0F0C0511139C195
:10556000F3C014D198F39923C9F35523B1F3951BD4
:10557000550BBB27AA2762177307840738F09F5F74
:105580005F4F220F331F441FAA1FA9F333D00E2EE3
:105590003AF0E0E830D091505040E695001CCAF750
:1055A00029D0FE2F27D0660F771F881FBB1F261715
:1055B00037074807AB07B0E809F0BB0B802DBF01E8
:1055C000FF2793585F4F2AF09E3F510568F0B6C001
:1055D00000C15F3FECF3983EDCF3869577956795C5
:1055E000B795F7959F5FC9F7880F911D9695879599
:1055F00097F90895E1E0660F771F881FBB1F6217B8
:1056000073078407BA0720F0621B730B840BBA0B75
:10561000EE1F88F7E095089504D06894B111D9C0C1
:105620000895BCD088F09F5790F0B92F9927B751B3
:10563000A0F0D1F0660F771F881F991F1AF0BA9556
:10564000C9F712C0B13081F0C3D0B1E00895C0C035
:10565000672F782F8827B85F39F0B93FCCF386954C
:1056600077956795B395D9F73EF4909580957095A9
:1056700061957F4F8F4F9F4F0895E89409C097FB26
:105680003EF490958095709561957F4F8F4F9F4F19
:105690009923A9F0F92F96E9BB279395F69587955D
:1056A00077956795B795F111F8CFFAF4BB0F11F420
:1056B00060FF1BC06F5F7F4F8F4F9F4F16C08823C7
:1056C00011F096E911C0772321F09EE8872F762FFD
:1056D00005C0662371F096E8862F70E060E02AF03E
:1056E0009A95660F771F881FDAF7880F969587952A
:1056F00097F90895990F0008550FAA0BE0E8FEEFFF
:1057000016161706E807F907C0F012161306E40785
:10571000F50798F0621B730B840B950B39F40A267E
:1057200061F0232B242B252B21F408950A2609F45C
:10573000A140A6958FEF811D811D089597F99F6760
:1057400080E870E060E008959FEF80EC0895002409
:105750000A941616170618060906089500240A94D6
:1057600012161306140605060895092E0394000C5C
:1057700011F4882352F0BB0F40F4BF2B11F460FFEB
:1057800004C06F5F7F4F8F4F9F4F089557FD905814
:10579000440F551F59F05F3F71F04795880F97FBF5
:1057A000991F61F09F3F79F08795089512161306AF
:1057B0001406551FF2CF4695F1DF08C016161706DE
:1057C0001806991FF1CF8695710561050894089513
:1057D000E894BB2766277727CB0197F908958ADFDE
:1057E00008F48FEF08950BD0C0CFB1DF28F0B6DFFB
:1057F00018F0952309F0A2CFA7CF1124EACFC6DF76
:10580000A0F3959FD1F3950F50E0551F629FF001D3
:10581000729FBB27F00DB11D639FAA27F00DB11D2C
:10582000AA1F649F6627B00DA11D661F829F2227B5
:10583000B00DA11D621F739FB00DA11D621F839F3C
:10584000A00D611D221F749F3327A00D611D231F12
:10585000849F600D211D822F762F6A2F11249F5760
:1058600050408AF0E1F088234AF0EE0FFF1FBB1F83
:10587000661F771F881F91505040A9F79E3F510522
:1058800070F05CCFA6CF5F3FECF3983EDCF38695DB
:1058900077956795B795F795E7959F5FC1F7FE2BCD
:1058A000880F911D9695879597F90895DB018F9341
:1058B0009F93A6DDBF91AF91A29F800D911DA39FE5
:1058C000900DB29F900D1124089597FB072E16F4AA
:1058D000009406D077FD08D013D007FC05D03EF425
:1058E000909581959F4F0895709561957F4F08958C
:1058F000EE0FFF1F881F8BBF0790F691E02D1994C4
:10590000AA1BBB1B51E107C0AA1FBB1FA617B707E5
:1059100010F0A61BB70B881F991F5A95A9F7809501
:105920009095BC01CD010895CF93DF93823091050E
:1059300010F482E090E0E091D310F091D41020E0D8
:1059400030E0C0E0D0E0309711F14081518148173C
:105950005907C0F04817590761F482819381209755
:1059600019F09B838A832BC09093D4108093D3101B
:1059700026C02115310519F04217530718F49A0172
:10598000BE01DF01EF010280F381E02DDCCF2115A4
:10599000310509F1281B390B2430310590F412969A
:1059A0008D919C9113976115710521F0FB019383F3
:1059B000828304C09093D4108093D310FD0132965B
:1059C00044C0FD01E20FF31F8193919322503109EE
:1059D0002D933C933AC02091D1103091D210232BBB
:1059E00041F420911802309119023093D210209383
:1059F000D11020911602309117022115310541F482
:105A00002DB73EB740911A0250911B02241B350B53
:105A1000E091D110F091D210E217F307A0F42E1B01
:105A20003F0B2817390778F0AC014E5F5F4F241702
:105A3000350748F04E0F5F1F5093D2104093D1109E
:105A40008193919302C0E0E0F0E0CF01DF91CF912C
:105A500008950F931F93CF93DF93009709F48CC0A1
:105A6000FC013297138212820091D3101091D4104E
:105A70000115110581F420813181820F931F20913E
:105A8000D1103091D2102817390779F5F093D21040
:105A9000E093D11071C0D80140E050E0AE17BF07CD
:105AA00050F412962D913C911397AD0121153105BB
:105AB00009F1D901F3CF9D01DA013383228360819B
:105AC0007181860F971F8217930769F4EC01288173
:105AD0003981260F371F2E5F3F4F318320838A8104
